{
  "contractName": "LoanContract",
  "abi": [
    {
      "inputs": [],
      "stateMutability": "nonpayable",
      "type": "constructor"
    },
    {
      "anonymous": false,
      "inputs": [
        {
          "indexed": false,
          "internalType": "string",
          "name": "description",
          "type": "string"
        }
      ],
      "name": "LogBoolUpdated",
      "type": "event"
    },
    {
      "anonymous": false,
      "inputs": [
        {
          "indexed": false,
          "internalType": "string",
          "name": "result",
          "type": "string"
        }
      ],
      "name": "LogConstructorInitiated",
      "type": "event"
    },
    {
      "anonymous": false,
      "inputs": [
        {
          "indexed": false,
          "internalType": "string",
          "name": "description",
          "type": "string"
        }
      ],
      "name": "LogNewProvableQuery",
      "type": "event"
    },
    {
      "inputs": [],
      "name": "b_eligible",
      "outputs": [
        {
          "internalType": "string",
          "name": "",
          "type": "string"
        }
      ],
      "stateMutability": "view",
      "type": "function",
      "constant": true
    },
    {
      "inputs": [],
      "name": "borrower",
      "outputs": [
        {
          "internalType": "address payable",
          "name": "",
          "type": "address"
        }
      ],
      "stateMutability": "view",
      "type": "function",
      "constant": true
    },
    {
      "inputs": [],
      "name": "currentState",
      "outputs": [
        {
          "internalType": "enum LoanContract.State",
          "name": "",
          "type": "uint8"
        }
      ],
      "stateMutability": "view",
      "type": "function",
      "constant": true
    },
    {
      "inputs": [],
      "name": "full_lender_pay",
      "outputs": [
        {
          "internalType": "uint256",
          "name": "",
          "type": "uint256"
        }
      ],
      "stateMutability": "view",
      "type": "function",
      "constant": true
    },
    {
      "inputs": [
        {
          "internalType": "uint256",
          "name": "",
          "type": "uint256"
        }
      ],
      "name": "lenders",
      "outputs": [
        {
          "internalType": "address payable",
          "name": "",
          "type": "address"
        }
      ],
      "stateMutability": "view",
      "type": "function",
      "constant": true
    },
    {
      "inputs": [],
      "name": "loan_rate",
      "outputs": [
        {
          "internalType": "uint8",
          "name": "",
          "type": "uint8"
        }
      ],
      "stateMutability": "view",
      "type": "function",
      "constant": true
    },
    {
      "inputs": [],
      "name": "loan_value",
      "outputs": [
        {
          "internalType": "uint256",
          "name": "",
          "type": "uint256"
        }
      ],
      "stateMutability": "view",
      "type": "function",
      "constant": true
    },
    {
      "inputs": [],
      "name": "max_lenders",
      "outputs": [
        {
          "internalType": "uint8",
          "name": "",
          "type": "uint8"
        }
      ],
      "stateMutability": "view",
      "type": "function",
      "constant": true
    },
    {
      "inputs": [],
      "name": "num_lenders",
      "outputs": [
        {
          "internalType": "uint8",
          "name": "",
          "type": "uint8"
        }
      ],
      "stateMutability": "view",
      "type": "function",
      "constant": true
    },
    {
      "inputs": [],
      "name": "num_months",
      "outputs": [
        {
          "internalType": "uint8",
          "name": "",
          "type": "uint8"
        }
      ],
      "stateMutability": "view",
      "type": "function",
      "constant": true
    },
    {
      "inputs": [],
      "name": "getContractBalance",
      "outputs": [
        {
          "internalType": "uint256",
          "name": "",
          "type": "uint256"
        }
      ],
      "stateMutability": "view",
      "type": "function",
      "constant": true
    },
    {
      "inputs": [],
      "name": "addLenderTest",
      "outputs": [],
      "stateMutability": "payable",
      "type": "function",
      "payable": true
    },
    {
      "inputs": [
        {
          "internalType": "address",
          "name": "_addr",
          "type": "address"
        }
      ],
      "name": "addLender",
      "outputs": [],
      "stateMutability": "payable",
      "type": "function",
      "payable": true
    },
    {
      "inputs": [
        {
          "internalType": "bytes32",
          "name": "myid",
          "type": "bytes32"
        },
        {
          "internalType": "string",
          "name": "result",
          "type": "string"
        }
      ],
      "name": "__callback",
      "outputs": [],
      "stateMutability": "nonpayable",
      "type": "function"
    },
    {
      "inputs": [
        {
          "internalType": "bytes32",
          "name": "_myid",
          "type": "bytes32"
        },
        {
          "internalType": "string",
          "name": "_result",
          "type": "string"
        },
        {
          "internalType": "bytes",
          "name": "_proof",
          "type": "bytes"
        }
      ],
      "name": "__callback",
      "outputs": [],
      "stateMutability": "nonpayable",
      "type": "function"
    },
    {
      "inputs": [
        {
          "internalType": "string",
          "name": "encrypted",
          "type": "string"
        },
        {
          "internalType": "string",
          "name": "uuid",
          "type": "string"
        }
      ],
      "name": "addBorrower",
      "outputs": [],
      "stateMutability": "nonpayable",
      "type": "function"
    }
  ],
  "bytecode": "0x60806040526000600560006101000a81548160ff021916908360038111156200002457fe5b02179055506040518060400160405280600581526020017f66616c7365000000000000000000000000000000000000000000000000000000815250600890805190602001906200007692919062000148565b503480156200008457600080fd5b5073ffc9b597e97d3d28fbcfa661fd91d6cb48ca00c2600160006101000a81548173ffffffffffffffffffffffffffffffffffffffff021916908373ffffffffffffffffffffffffffffffffffffffff1602179055507f11a3fca63f87bd67d7f9f72b744acc8be2193705e7a734ac3a773d35d259e87b6040518080602001828103825260198152602001807f436f6e7374727563746f722077617320696e697469617465640000000000000081525060200191505060405180910390a1620001f7565b828054600181600116156101000203166002900490600052602060002090601f016020900481019282601f106200018b57805160ff1916838001178555620001bc565b82800160010185558215620001bc579182015b82811115620001bb5782518255916020019190600101906200019e565b5b509050620001cb9190620001cf565b5090565b620001f491905b80821115620001f0576000816000905550600101620001d6565b5090565b90565b61262c80620002076000396000f3fe608060405260043610610110576000357c0100000000000000000000000000000000000000000000000000000000900480637df1f1b9116100a757806393084b341161007657806393084b34146106d4578063a615eb2714610718578063c6c589b0146107a8578063cb9d7d70146107d357610110565b80637df1f1b9146104725780638544ec65146104c95780638c84795f14610628578063929eea211461065957610110565b80634d307199116100e35780634d307199146103ba57806358c2e590146103e557806368dab4ec146104165780636f9fb98a1461044757610110565b80630c3f6acf146101155780631fde87321461014e57806327dc297e1461017f57806338bbfa5014610251575b600080fd5b34801561012157600080fd5b5061012a6107dd565b6040518082600381111561013a57fe5b60ff16815260200191505060405180910390f35b34801561015a57600080fd5b506101636107f0565b604051808260ff1660ff16815260200191505060405180910390f35b34801561018b57600080fd5b5061024f600480360360408110156101a257600080fd5b8101908080359060200190929190803590602001906401000000008111156101c957600080fd5b8201836020820111156101db57600080fd5b803590602001918460018302840111640100000000831117156101fd57600080fd5b91908080601f016020809104026020016040519081016040528093929190818152602001838380828437600081840152601f19601f820116905080830192505050505050509192919290505050610803565b005b34801561025d57600080fd5b506103b86004803603606081101561027457600080fd5b81019080803590602001909291908035906020019064010000000081111561029b57600080fd5b8201836020820111156102ad57600080fd5b803590602001918460018302840111640100000000831117156102cf57600080fd5b91908080601f016020809104026020016040519081016040528093929190818152602001838380828437600081840152601f19601f8201169050808301925050505050505091929192908035906020019064010000000081111561033257600080fd5b82018360208201111561034457600080fd5b8035906020019184600183028401116401000000008311171561036657600080fd5b91908080601f016020809104026020016040519081016040528093929190818152602001838380828437600081840152601f19601f820116905080830192505050505050509192919290505050610ac0565b005b3480156103c657600080fd5b506103cf610ae4565b6040518082815260200191505060405180910390f35b3480156103f157600080fd5b506103fa610af0565b604051808260ff1660ff16815260200191505060405180910390f35b34801561042257600080fd5b5061042b610af5565b604051808260ff1660ff16815260200191505060405180910390f35b34801561045357600080fd5b5061045c610afa565b6040518082815260200191505060405180910390f35b34801561047e57600080fd5b50610487610b19565b604051808273ffffffffffffffffffffffffffffffffffffffff1673ffffffffffffffffffffffffffffffffffffffff16815260200191505060405180910390f35b3480156104d557600080fd5b50610626600480360360408110156104ec57600080fd5b810190808035906020019064010000000081111561050957600080fd5b82018360208201111561051b57600080fd5b8035906020019184600183028401116401000000008311171561053d57600080fd5b91908080601f016020809104026020016040519081016040528093929190818152602001838380828437600081840152601f19601f820116905080830192505050505050509192919290803590602001906401000000008111156105a057600080fd5b8201836020820111156105b257600080fd5b803590602001918460018302840111640100000000831117156105d457600080fd5b91908080601f016020809104026020016040519081016040528093929190818152602001838380828437600081840152601f19601f820116905080830192505050505050509192919290505050610b3f565b005b34801561063457600080fd5b5061063d610dac565b604051808260ff1660ff16815260200191505060405180910390f35b34801561066557600080fd5b506106926004803603602081101561067c57600080fd5b8101908080359060200190929190505050610db1565b604051808273ffffffffffffffffffffffffffffffffffffffff1673ffffffffffffffffffffffffffffffffffffffff16815260200191505060405180910390f35b610716600480360360208110156106ea57600080fd5b81019080803573ffffffffffffffffffffffffffffffffffffffff169060200190929190505050610ded565b005b34801561072457600080fd5b5061072d61106e565b6040518080602001828103825283818151815260200191508051906020019080838360005b8381101561076d578082015181840152602081019050610752565b50505050905090810190601f16801561079a5780820380516001836020036101000a031916815260200191505b509250505060405180910390f35b3480156107b457600080fd5b506107bd61110c565b6040518082815260200191505060405180910390f35b6107db611118565b005b600560009054906101000a900460ff1681565b600560019054906101000a900460ff1681565b7fc4dc360d0a9c0677a3379ae0a3d81e887f761e65fdf3d7e00859d1bcd3c473896040518080602001828103825260108152602001807f696e736964652063616c6c6261636b2e0000000000000000000000000000000081525060200191505060405180910390a1610873611148565b73ffffffffffffffffffffffffffffffffffffffff163373ffffffffffffffffffffffffffffffffffffffff16146108aa57600080fd5b80600890805190602001906108c0929190612495565b507fc277e96b373e57b2aadbcfa89590d3c41fc3673f97d298047d537b290fda2f31816040518080602001828103825283818151815260200191508051906020019080838360005b83811015610923578082015181840152602081019050610908565b50505050905090810190601f1680156109505780820380516001836020036101000a031916815260200191505b509250505060405180910390a160405160200180807f747275650000000000000000000000000000000000000000000000000000000081525060040190506040516020818303038152906040528051906020012060086040516020018082805460018160011615610100020316600290048015610a045780601f106109e2576101008083540402835291820191610a04565b820191906000526020600020905b8154815290600101906020018083116109f0575b5050915050604051602081830303815290604052805190602001201415610a54573373ffffffffffffffffffffffffffffffffffffffff16600760009054906101000a90505050610a536114bb565b5b7fc4dc360d0a9c0677a3379ae0a3d81e887f761e65fdf3d7e00859d1bcd3c473896040518080602001828103825260128152602001807f66696e69736865642063616c6c6261636b2e000000000000000000000000000081525060200191505060405180910390a15050565b60006001026003600080600102815260200190815260200160002081905550505050565b6710a741a46278000081565b600181565b600c81565b60003073ffffffffffffffffffffffffffffffffffffffff1631905090565b600760009054906101000a900473ffffffffffffffffffffffffffffffffffffffff1681565b7fc4dc360d0a9c0677a3379ae0a3d81e887f761e65fdf3d7e00859d1bcd3c473896040518080602001828103825260138152602001807f696e7369646520416464426f72726f7765722e0000000000000000000000000081525060200191505060405180910390a1600073ffffffffffffffffffffffffffffffffffffffff16600760009054906101000a900473ffffffffffffffffffffffffffffffffffffffff1673ffffffffffffffffffffffffffffffffffffffff1614610c4e576040517f08c379a00000000000000000000000000000000000000000000000000000000081526004018080602001828103825260288152602001806125706028913960400191505060405180910390fd5b7fc4dc360d0a9c0677a3379ae0a3d81e887f761e65fdf3d7e00859d1bcd3c4738960405180806020018281038252603581526020018061253b6035913960400191505060405180910390a1610d666040518060400160405280600381526020017f55524c0000000000000000000000000000000000000000000000000000000000815250610d616040518060600160405280603b8152602001612598603b9139856040518060400160405280600681526020017f26757569643d0000000000000000000000000000000000000000000000000000815250866040518060400160405280600781526020017f292e73636f72650000000000000000000000000000000000000000000000000081525061153d565b611951565b5033600760006101000a81548173ffffffffffffffffffffffffffffffffffffffff021916908373ffffffffffffffffffffffffffffffffffffffff1602179055505050565b601481565b60068181548110610dbe57fe5b906000526020600020016000915054906101000a900473ffffffffffffffffffffffffffffffffffffffff1681565b600160ff16674563918244f4000081610e0257fe5b043414610e77576040517f08c379a00000000000000000000000000000000000000000000000000000000081526004018080602001828103825260178152602001807f496e636f7272656374206465706f7369742076616c756500000000000000000081525060200191505060405180910390fd5b600160ff1660068054905010610ed8576040517f08c379a00000000000000000000000000000000000000000000000000000000081526004018080602001828103825260248152602001806125d36024913960400191505060405180910390fd5b60008090505b6006805490508161ffff161015610fd9578173ffffffffffffffffffffffffffffffffffffffff1660068261ffff1681548110610f1757fe5b9060005260206000200160009054906101000a900473ffffffffffffffffffffffffffffffffffffffff1673ffffffffffffffffffffffffffffffffffffffff161415610fcc576040517f08c379a000000000000000000000000000000000000000000000000000000000815260040180806020018281038252601b8152602001807f43616e6e6f74206c656e64206d756c7469706c652074696d657321000000000081525060200191505060405180910390fd5b8080600101915050610ede565b506001600560018282829054906101000a900460ff160192506101000a81548160ff021916908360ff1602179055506006819080600181540180825580915050600190039060005260206000200160009091909190916101000a81548173ffffffffffffffffffffffffffffffffffffffff021916908373ffffffffffffffffffffffffffffffffffffffff16021790555050565b60088054600181600116156101000203166002900480601f0160208091040260200160405190810160405280929190818152602001828054600181600116156101000203166002900480156111045780601f106110d957610100808354040283529160200191611104565b820191906000526020600020905b8154815290600101906020018083116110e757829003601f168201915b505050505081565b674563918244f4000081565b6001600560018282829054906101000a900460ff160192506101000a81548160ff021916908360ff160217905550565b60008073ffffffffffffffffffffffffffffffffffffffff16600160009054906101000a900473ffffffffffffffffffffffffffffffffffffffff1673ffffffffffffffffffffffffffffffffffffffff1614806111d0575060006111ce600160009054906101000a900473ffffffffffffffffffffffffffffffffffffffff16611f08565b145b156111e1576111df6000611f13565b505b600160009054906101000a900473ffffffffffffffffffffffffffffffffffffffff1673ffffffffffffffffffffffffffffffffffffffff166338cc48316040518163ffffffff167c0100000000000000000000000000000000000000000000000000000000028152600401602060405180830381600087803b15801561126757600080fd5b505af115801561127b573d6000803e3d6000fd5b505050506040513d602081101561129157600080fd5b810190808051906020019092919050505073ffffffffffffffffffffffffffffffffffffffff166000809054906101000a900473ffffffffffffffffffffffffffffffffffffffff1673ffffffffffffffffffffffffffffffffffffffff16146113f657600160009054906101000a900473ffffffffffffffffffffffffffffffffffffffff1673ffffffffffffffffffffffffffffffffffffffff166338cc48316040518163ffffffff167c0100000000000000000000000000000000000000000000000000000000028152600401602060405180830381600087803b15801561137b57600080fd5b505af115801561138f573d6000803e3d6000fd5b505050506040513d60208110156113a557600080fd5b81019080805190602001909291905050506000806101000a81548173ffffffffffffffffffffffffffffffffffffffff021916908373ffffffffffffffffffffffffffffffffffffffff1602179055505b6000809054906101000a900473ffffffffffffffffffffffffffffffffffffffff1673ffffffffffffffffffffffffffffffffffffffff1663c281d19e6040518163ffffffff167c0100000000000000000000000000000000000000000000000000000000028152600401602060405180830381600087803b15801561147b57600080fd5b505af115801561148f573d6000803e3d6000fd5b505050506040513d60208110156114a557600080fd5b8101908080519060200190929190505050905090565b600760009054906101000a900473ffffffffffffffffffffffffffffffffffffffff1673ffffffffffffffffffffffffffffffffffffffff166108fc3073ffffffffffffffffffffffffffffffffffffffff16319081150290604051600060405180830381858888f1935050505015801561153a573d6000803e3d6000fd5b50565b60608086905060608690506060869050606086905060608690506060815183518551875189510101010167ffffffffffffffff8111801561157d57600080fd5b506040519080825280601f01601f1916602001820160405280156115b05781602001600182028036833780820191505090505b509050606081905060008090506000809050600090505b8851811015611674578881815181106115dc57fe5b60200101517f010000000000000000000000000000000000000000000000000000000000000090047f01000000000000000000000000000000000000000000000000000000000000000283838060010194508151811061163857fe5b60200101907effffffffffffffffffffffffffffffffffffffffffffffffffffffffffffff1916908160001a90535080806001019150506115c7565b600090505b87518110156117265787818151811061168e57fe5b60200101517f010000000000000000000000000000000000000000000000000000000000000090047f0100000000000000000000000000000000000000000000000000000000000000028383806001019450815181106116ea57fe5b60200101907effffffffffffffffffffffffffffffffffffffffffffffffffffffffffffff1916908160001a9053508080600101915050611679565b600090505b86518110156117d85786818151811061174057fe5b60200101517f010000000000000000000000000000000000000000000000000000000000000090047f01000000000000000000000000000000000000000000000000000000000000000283838060010194508151811061179c57fe5b60200101907effffffffffffffffffffffffffffffffffffffffffffffffffffffffffffff1916908160001a905350808060010191505061172b565b600090505b855181101561188a578581815181106117f257fe5b60200101517f010000000000000000000000000000000000000000000000000000000000000090047f01000000000000000000000000000000000000000000000000000000000000000283838060010194508151811061184e57fe5b60200101907effffffffffffffffffffffffffffffffffffffffffffffffffffffffffffff1916908160001a90535080806001019150506117dd565b600090505b845181101561193c578481815181106118a457fe5b60200101517f010000000000000000000000000000000000000000000000000000000000000090047f01000000000000000000000000000000000000000000000000000000000000000283838060010194508151811061190057fe5b60200101907effffffffffffffffffffffffffffffffffffffffffffffffffffffffffffff1916908160001a905350808060010191505061188f565b82995050505050505050505095945050505050565b60008073ffffffffffffffffffffffffffffffffffffffff16600160009054906101000a900473ffffffffffffffffffffffffffffffffffffffff1673ffffffffffffffffffffffffffffffffffffffff1614806119d9575060006119d7600160009054906101000a900473ffffffffffffffffffffffffffffffffffffffff16611f08565b145b156119ea576119e86000611f13565b505b600160009054906101000a900473ffffffffffffffffffffffffffffffffffffffff1673ffffffffffffffffffffffffffffffffffffffff166338cc48316040518163ffffffff167c0100000000000000000000000000000000000000000000000000000000028152600401602060405180830381600087803b158015611a7057600080fd5b505af1158015611a84573d6000803e3d6000fd5b505050506040513d6020811015611a9a57600080fd5b810190808051906020019092919050505073ffffffffffffffffffffffffffffffffffffffff166000809054906101000a900473ffffffffffffffffffffffffffffffffffffffff1673ffffffffffffffffffffffffffffffffffffffff1614611bff57600160009054906101000a900473ffffffffffffffffffffffffffffffffffffffff1673ffffffffffffffffffffffffffffffffffffffff166338cc48316040518163ffffffff167c0100000000000000000000000000000000000000000000000000000000028152600401602060405180830381600087803b158015611b8457600080fd5b505af1158015611b98573d6000803e3d6000fd5b505050506040513d6020811015611bae57600080fd5b81019080805190602001909291905050506000806101000a81548173ffffffffffffffffffffffffffffffffffffffff021916908373ffffffffffffffffffffffffffffffffffffffff1602179055505b60008060009054906101000a900473ffffffffffffffffffffffffffffffffffffffff1673ffffffffffffffffffffffffffffffffffffffff1663524f3889856040518263ffffffff167c01000000000000000000000000000000000000000000000000000000000281526004018080602001828103825283818151815260200191508051906020019080838360005b83811015611caa578082015181840152602081019050611c8f565b50505050905090810190601f168015611cd75780820380516001836020036101000a031916815260200191505b5092505050602060405180830381600087803b158015611cf657600080fd5b505af1158015611d0a573d6000803e3d6000fd5b505050506040513d6020811015611d2057600080fd5b8101908080519060200190929190505050905062030d403a02670de0b6b3a764000001811115611d57576000600102915050611f02565b6000809054906101000a900473ffffffffffffffffffffffffffffffffffffffff1673ffffffffffffffffffffffffffffffffffffffff1663adf59f9982600087876040518563ffffffff167c0100000000000000000000000000000000000000000000000000000000028152600401808481526020018060200180602001838103835285818151815260200191508051906020019080838360005b83811015611e0e578082015181840152602081019050611df3565b50505050905090810190601f168015611e3b5780820380516001836020036101000a031916815260200191505b50838103825284818151815260200191508051906020019080838360005b83811015611e74578082015181840152602081019050611e59565b50505050905090810190601f168015611ea15780820380516001836020036101000a031916815260200191505b50955050505050506020604051808303818588803b158015611ec257600080fd5b505af1158015611ed6573d6000803e3d6000fd5b50505050506040513d6020811015611eed57600080fd5b81019080805190602001909291905050509150505b92915050565b6000813b9050919050565b6000611f1d611f24565b9050919050565b600080611f44731d3b2638a7cc9f2cb3d298a3da7a90b67e5506ed611f08565b1115611fe657731d3b2638a7cc9f2cb3d298a3da7a90b67e5506ed600160006101000a81548173ffffffffffffffffffffffffffffffffffffffff021916908373ffffffffffffffffffffffffffffffffffffffff160217905550611fdd6040518060400160405280600b81526020017f6574685f6d61696e6e657400000000000000000000000000000000000000000081525061247b565b60019050612478565b600061200573c03a2615d5efaf5f49f60b7bb6583eaec212fdf1611f08565b11156120a75773c03a2615d5efaf5f49f60b7bb6583eaec212fdf1600160006101000a81548173ffffffffffffffffffffffffffffffffffffffff021916908373ffffffffffffffffffffffffffffffffffffffff16021790555061209e6040518060400160405280600c81526020017f6574685f726f707374656e33000000000000000000000000000000000000000081525061247b565b60019050612478565b60006120c673b7a07bcf2ba2f2703b24c0691b5278999c59ac7e611f08565b11156121685773b7a07bcf2ba2f2703b24c0691b5278999c59ac7e600160006101000a81548173ffffffffffffffffffffffffffffffffffffffff021916908373ffffffffffffffffffffffffffffffffffffffff16021790555061215f6040518060400160405280600981526020017f6574685f6b6f76616e000000000000000000000000000000000000000000000081525061247b565b60019050612478565b600061218773146500cfd35b22e4a392fe0adc06de1a1368ed48611f08565b11156122295773146500cfd35b22e4a392fe0adc06de1a1368ed48600160006101000a81548173ffffffffffffffffffffffffffffffffffffffff021916908373ffffffffffffffffffffffffffffffffffffffff1602179055506122206040518060400160405280600b81526020017f6574685f72696e6b65627900000000000000000000000000000000000000000081525061247b565b60019050612478565b600061224873a2998efd205fb9d4b4963afb70778d6354ad3a41611f08565b11156122ea5773a2998efd205fb9d4b4963afb70778d6354ad3a41600160006101000a81548173ffffffffffffffffffffffffffffffffffffffff021916908373ffffffffffffffffffffffffffffffffffffffff1602179055506122e16040518060400160405280600a81526020017f6574685f676f65726c690000000000000000000000000000000000000000000081525061247b565b60019050612478565b6000612309736f485c8bf6fc43ea212e93bbf8ce046c7f1cb475611f08565b111561236d57736f485c8bf6fc43ea212e93bbf8ce046c7f1cb475600160006101000a81548173ffffffffffffffffffffffffffffffffffffffff021916908373ffffffffffffffffffffffffffffffffffffffff16021790555060019050612478565b600061238c7320e12a1f859b3feae5fb2a0a32c18f5a65555bbf611f08565b11156123f0577320e12a1f859b3feae5fb2a0a32c18f5a65555bbf600160006101000a81548173ffffffffffffffffffffffffffffffffffffffff021916908373ffffffffffffffffffffffffffffffffffffffff16021790555060019050612478565b600061240f7351efaf4c8b3c9afbd5ab9f4bbc82784ab6ef8faa611f08565b1115612473577351efaf4c8b3c9afbd5ab9f4bbc82784ab6ef8faa600160006101000a81548173ffffffffffffffffffffffffffffffffffffffff021916908373ffffffffffffffffffffffffffffffffffffffff16021790555060019050612478565b600090505b90565b8060029080519060200190612491929190612495565b5050565b828054600181600116156101000203166002900490600052602060002090601f016020900481019282601f106124d657805160ff1916838001178555612504565b82800160010185558215612504579182015b828111156125035782518255916020019190600101906124e8565b5b5090506125119190612515565b5090565b61253791905b8082111561253357600081600090555060010161251b565b5090565b9056fe50726f7661626c65207175657279207761732073656e742c207374616e64696e6720627920666f722074686520616e737765722e2e426f72726f77657220616c72656164792061646465642e20436f6e74726163742069732066756c6c6a736f6e2868747470733a2f2f6139393032323636346666382e6e67726f6b2e696f2f656e6372797074696f6e2f64656b79633f7075626b65793d4d6178206e756d626572206c656e6465727320616c726561647920636f6d6d6974746564a264697066735822122021750d233904a03e4eca1be4115cd9b4f61a443293f00c9eda7b0144c934687364736f6c63430006090033",
  "immutableReferences": {},
  "source": "//SPDX-License-Identifier: UNLICENSED\npragma solidity > 0.6.0 < 0.7.0;\n// import \"github.com/provable-things/ethereum-api/provableAPI_0.6.sol\";\nimport './provableAPI.sol';\n//Copyright (c) dkazenoff\ncontract LoanContract is usingProvable {\n    enum State {AWAITING_DEPOSITS, AWAITING_BVER, PAID_BORROWER, PAYING_LENDERS}\n    State public currentState = State.AWAITING_DEPOSITS;\n    uint constant public loan_value = 5 ether;     //ETH\n    uint8 constant public max_lenders = 1;\n    uint8 constant public loan_rate = 20;       //%\n    uint8 constant public num_months = 12;\n    uint constant public full_lender_pay = 1200000000000000000;\n    // uint public contract_balance;\n    uint8 public num_lenders;\n    address payable[] public lenders;\n    address payable public borrower;\n    string public b_eligible = \"false\";\n    event LogNewProvableQuery(string description);\n    event LogConstructorInitiated(string result);\n    event LogBoolUpdated(string description);\n\n    constructor() public {\n    OAR = OracleAddrResolverI(0xfFC9B597e97D3d28Fbcfa661FD91D6CB48Ca00c2);\n    emit LogConstructorInitiated(\"Constructor was initiated\");\n    \n  }\n\n    function getContractBalance() public view returns (uint) {\n        return address(this).balance;\n    }\n    function addLenderTest() payable public {\n      num_lenders += 1;\n    }\n  // function addLender(address payable _addr) payable public {\n  function addLender(address _addr) payable public {\n    //change _addr to msg.sender for deployment&remove _addr param. Using _addr for easy testing\n    require(msg.value == (loan_value/max_lenders), \"Incorrect deposit value\");\n    require(lenders.length < max_lenders,\"Max number lenders already committed\");\n    for (uint16 i = 0; i<lenders.length; i++) {\n      require(lenders[i] != payable(_addr), \"Cannot lend multiple times!\");\n    }\n    num_lenders += 1;\n    // _addr = payable(_addr);\n    lenders.push(payable(_addr));\n  }\n   function __callback(bytes32 myid, string memory result) public override{\n      emit LogNewProvableQuery(\"inside callback.\");\n      if (msg.sender != provable_cbAddress()) revert();\n    //   ETHUSD = result;\n      b_eligible = result;\n      LogBoolUpdated(result);\n      if (keccak256(abi.encodePacked(b_eligible)) == keccak256(abi.encodePacked(\"true\")) ) {\n        borrower == msg.sender;\n        BPAYOUT();\n      }\n\n      emit LogNewProvableQuery(\"finished callback.\");\n   }\n  function addBorrower(string memory encrypted, string memory uuid) public {\n    emit LogNewProvableQuery(\"inside AddBorrower.\");\n    require(borrower == payable(0x0), \"Borrower already added. Contract is full\");\n  \n  emit LogNewProvableQuery(\"Provable query was sent, standing by for the answer..\");\n       //Replace below URL with whatever your public ngrok tunnel URL is \n  provable_query(\"URL\", strConcat(\"json(https://a99022664ff8.ngrok.io/encryption/dekyc?pubkey=\",encrypted,\"&uuid=\",uuid,\").score\"));\n  borrower = msg.sender;\n  }\n  function BPAYOUT() private {\n    // require(_addr==borrower, \"Error with BPAYOUT Function\");\n    borrower.transfer(address(this).balance);\n  }\n\n}\n",
  "sourcePath": "/Users/dan/me/myprojects/atlas-frontend/contracts/LoanContract.sol",
  "compiler": {
    "name": "solc",
    "version": "0.6.9+commit.3e3065ac.Emscripten.clang"
  },
  "schemaVersion": "3.2.0",
  "updatedAt": "2020-06-25T08:22:48.628Z",
  "networkType": "ethereum",
  "devdoc": {
    "methods": {}
  },
  "userdoc": {
    "methods": {}
  }
}