{
  "contractName": "LoanContract",
  "abi": [
    {
      "inputs": [],
      "name": "isgood",
      "outputs": [
        {
          "internalType": "string",
          "name": "",
          "type": "string"
        }
      ],
      "stateMutability": "view",
      "type": "function",
      "constant": true
    },
    {
      "inputs": [],
      "name": "loan_value",
      "outputs": [
        {
          "internalType": "uint256",
          "name": "",
          "type": "uint256"
        }
      ],
      "stateMutability": "view",
      "type": "function",
      "constant": true
    },
    {
      "inputs": [],
      "name": "num_lenders",
      "outputs": [
        {
          "internalType": "uint256",
          "name": "",
          "type": "uint256"
        }
      ],
      "stateMutability": "view",
      "type": "function",
      "constant": true
    },
    {
      "inputs": [],
      "name": "getBalance",
      "outputs": [
        {
          "internalType": "uint256",
          "name": "",
          "type": "uint256"
        }
      ],
      "stateMutability": "nonpayable",
      "type": "function"
    },
    {
      "inputs": [],
      "name": "AddLender",
      "outputs": [],
      "stateMutability": "payable",
      "type": "function",
      "payable": true
    }
  ],
  "bytecode": "0x60806040526040518060400160405280600581526020017f66616c73650000000000000000000000000000000000000000000000000000008152506000908051906020019061004f929190610062565b5034801561005c57600080fd5b50610107565b828054600181600116156101000203166002900490600052602060002090601f016020900481019282601f106100a357805160ff19168380011785556100d1565b828001600101855582156100d1579182015b828111156100d05782518255916020019190600101906100b5565b5b5090506100de91906100e2565b5090565b61010491905b808211156101005760008160009055506001016100e8565b5090565b90565b610263806101166000396000f3fe60806040526004361061004a5760003560e01c806312065fe01461004f57806312719b621461007a5780631fde87321461010a5780639bc8917b14610135578063c6c589b01461013f575b600080fd5b34801561005b57600080fd5b5061006461016a565b6040518082815260200191505060405180910390f35b34801561008657600080fd5b5061008f610172565b6040518080602001828103825283818151815260200191508051906020019080838360005b838110156100cf5780820151818401526020810190506100b4565b50505050905090810190601f1680156100fc5780820380516001836020036101000a031916815260200191505b509250505060405180910390f35b34801561011657600080fd5b5061011f610210565b6040518082815260200191505060405180910390f35b61013d610216565b005b34801561014b57600080fd5b50610154610228565b6040518082815260200191505060405180910390f35b600047905090565b60008054600181600116156101000203166002900480601f0160208091040260200160405190810160405280929190818152602001828054600181600116156101000203166002900480156102085780601f106101dd57610100808354040283529160200191610208565b820191906000526020600020905b8154815290600101906020018083116101eb57829003601f168201915b505050505081565b60015481565b60018060008282540192505081905550565b60028156fea26469706673582212202d38d344fe590009bada41968f6889410aeebbe467740fc8e276856fb8cd343a64736f6c63430006090033",
  "immutableReferences": {},
  "source": "pragma solidity > 0.6.0 < 0.7.0;\n\ncontract LoanContract {\n    uint constant public loan_value = 2;     //ETH\n    string public isgood = \"false\";\n    // uint public balance;\n    uint public num_lenders;\n    \n    function getBalance() public returns (uint) {\n        return address(this).balance;\n    }\n     function AddLender() payable public {\n    //   balance = address(this).balance;\n      num_lenders += 1;\n  }\n}\n",
  "sourcePath": "/Users/dan/me/myprojects/atlas-frontend/contracts/LoanContract.sol",
  "compiler": {
    "name": "solc",
    "version": "0.6.9+commit.3e3065ac.Emscripten.clang"
  },
  "schemaVersion": "3.2.0",
  "updatedAt": "2020-06-18T17:43:38.049Z",
  "networkType": "ethereum",
  "devdoc": {
    "methods": {}
  },
  "userdoc": {
    "methods": {}
  }
}