{
  "contractName": "LoanContract",
  "abi": [
    {
      "inputs": [],
      "name": "borrower_addr",
      "outputs": [
        {
          "internalType": "address payable",
          "name": "",
          "type": "address"
        }
      ],
      "stateMutability": "view",
      "type": "function"
    },
    {
      "inputs": [
        {
          "internalType": "uint256",
          "name": "",
          "type": "uint256"
        }
      ],
      "name": "loaners",
      "outputs": [
        {
          "internalType": "address payable",
          "name": "",
          "type": "address"
        }
      ],
      "stateMutability": "view",
      "type": "function"
    },
    {
      "inputs": [
        {
          "internalType": "address payable",
          "name": "loaner",
          "type": "address"
        }
      ],
      "name": "addLoaner",
      "outputs": [],
      "stateMutability": "payable",
      "type": "function"
    }
  ],
  "bytecode": "0x60806040526000805534801561001457600080fd5b506105de806100246000396000f3fe6080604052600436106100345760003560e01c80634bb9074814610039578063923f6b0b1461007d578063d56f011a146100d4575b600080fd5b61007b6004803603602081101561004f57600080fd5b81019080803573ffffffffffffffffffffffffffffffffffffffff16906020019092919050505061014f565b005b34801561008957600080fd5b50610092610546565b604051808273ffffffffffffffffffffffffffffffffffffffff1673ffffffffffffffffffffffffffffffffffffffff16815260200191505060405180910390f35b3480156100e057600080fd5b5061010d600480360360208110156100f757600080fd5b810190808035906020019092919050505061056c565b604051808273ffffffffffffffffffffffffffffffffffffffff1673ffffffffffffffffffffffffffffffffffffffff16815260200191505060405180910390f35b339050678ac7230489e8000034146101cf576040517f08c379a000000000000000000000000000000000000000000000000000000000815260040180806020018281038252601e8152602001807f696e636f7272656374206c6f616e206465706f73697420616d6f756e7421000081525060200191505060405180910390fd5b600160009054906101000a900473ffffffffffffffffffffffffffffffffffffffff1673ffffffffffffffffffffffffffffffffffffffff168173ffffffffffffffffffffffffffffffffffffffff161415610293576040517f08c379a00000000000000000000000000000000000000000000000000000000081526004018080602001828103825260138152602001807f43616e6e6f74204c6f616e20746f2053656c660000000000000000000000000081525060200191505060405180910390fd5b60016002805490501061030e576040517f08c379a000000000000000000000000000000000000000000000000000000000815260040180806020018281038252601d8152602001807f4c6f616e657220717565756520697320616c72656164792066756c6c2e00000081525060200191505060405180910390fd5b60006001905060008090505b6002805490508110156103a4578273ffffffffffffffffffffffffffffffffffffffff166002828154811061034b57fe5b9060005260206000200160009054906101000a900473ffffffffffffffffffffffffffffffffffffffff1673ffffffffffffffffffffffffffffffffffffffff16141561039757600091505b808060010191505061031a565b50600115158115151461041f576040517f08c379a00000000000000000000000000000000000000000000000000000000081526004018080602001828103825260208152602001807f4164647265737320616c726561647920696e206c6f616e65722071756575652e81525060200191505060405180910390fd5b3073ffffffffffffffffffffffffffffffffffffffff166108fc68056bc75e2d631000009081150290604051600060405180830381858888f193505050506104cf576040517f08c379a00000000000000000000000000000000000000000000000000000000081526004018080602001828103825260148152602001807f696e636f72726563742076616c75652073656e7400000000000000000000000081525060200191505060405180910390fd5b606460008082825401925050819055506002829080600181540180825580915050600190039060005260206000200160009091909190916101000a81548173ffffffffffffffffffffffffffffffffffffffff021916908373ffffffffffffffffffffffffffffffffffffffff1602179055505050565b600160009054906101000a900473ffffffffffffffffffffffffffffffffffffffff1681565b6002818154811061057957fe5b906000526020600020016000915054906101000a900473ffffffffffffffffffffffffffffffffffffffff168156fea264697066735822122037f0a8a55e0825702756e6dba1b1c2955bd9ed283cb9867454590fd8fb18e69c64736f6c63430006080033",
  "immutableReferences": {},
  "source": "pragma solidity >=0.4.22 <0.7.0;\n\n/// @title Voting with delegation.\ncontract LoanContract {\n    //bytes32 constant myHash = keccak256(\"hash_of_verifications\"); \n\n    uint constant loan_value = 100;     //ETH\n    uint constant loan_percent = 10;    //%   \n    uint constant timeframe = 12;       //months\n    uint constant max_loaners = 1;     //10, etc...\n    uint balance = 0;\n    address payable public borrower_addr;\n    address payable[] public loaners;   //receive the interest payouts\n   \n    //  struct Loaner {  // It will represent a single Loander.\n    //     uint loaner_count; // weight is accumulated by delegation\n       \n    // }\n  \n    function addLoaner(address payable loaner) external payable {\n        loaner = payable(msg.sender);\n        //@requires: loaner address as payable, msg.value to be the correct amount of ether, and msg.sender not already in loaners array\n        //@effects: desposits appropriate portion of loan value to the contract from loaner\n        require(msg.value == 10 ether, \"incorrect loan deposit amount!\" );\n        require(loaner != borrower_addr, \"Cannot Loan to Self\");\n        require(loaners.length < max_loaners, \"Loaner queue is already full.\");\n        bool loaner_bool = true;\n        for (uint i = 0; i < loaners.length; i++) {\n            if (loaners[i] == loaner) loaner_bool = false;\n        }\n        require(loaner_bool == true, \"Address already in loaner queue.\");\n                                    //loan_value / max_loaners,\n        require((payable(address(this)).send(100 ether)), \"incorrect value sent\");\n        balance += 100;\n        loaners.push(loaner);\n    }\n    // function BPayout(address payable recipient) payable external {\n    //     require(recipient == )\n    //     recipient.transfer(100, ether);\n    // }\n\n    // function LPayout() {\n    //     for (uint i=0; i<loaners.length; i++) {\n    //         i++\n    //     }\n    //     return;\n    // }\n\n   \n   \n\n    /// Give your vote (including votes delegated to you)\n    /// to proposal `proposals[proposal].name`.\n    // function vote(uint proposal) public {\n    //     Voter storage sender = voters[msg.sender];\n    //     require(sender.weight != 0, \"Has no right to vote\");\n    //     require(!sender.voted, \"Already voted.\");\n    //     sender.voted = true;\n    //     sender.vote = proposal;\n\n    //     // If `proposal` is out of the range of the array,\n    //     // this will throw automatically and revert all\n    //     // changes.\n    //     proposals[proposal].voteCount += sender.weight;\n    // }\n\n    /// @dev Computes the winning proposal taking all\n    /// previous votes into account.\n   \n}",
  "sourcePath": "/Users/dan/me/myprojects/atlas-frontend/contracts/LoanContract.sol",
  "compiler": {
    "name": "solc",
    "version": "0.6.8+commit.0bbfe453.Emscripten.clang"
  },
  "schemaVersion": "3.2.0",
  "updatedAt": "2020-06-04T21:43:13.427Z",
  "devdoc": {
    "methods": {},
    "title": "Voting with delegation."
  },
  "userdoc": {
    "methods": {}
  }
}