{
  "contractName": "LoanContract",
  "abi": [
    {
      "inputs": [],
      "name": "isgood",
      "outputs": [
        {
          "internalType": "string",
          "name": "",
          "type": "string"
        }
      ],
      "stateMutability": "view",
      "type": "function",
      "constant": true
    },
    {
      "inputs": [],
      "name": "loan_value",
      "outputs": [
        {
          "internalType": "uint256",
          "name": "",
          "type": "uint256"
        }
      ],
      "stateMutability": "view",
      "type": "function",
      "constant": true
    },
    {
      "inputs": [],
      "name": "num_lenders",
      "outputs": [
        {
          "internalType": "uint256",
          "name": "",
          "type": "uint256"
        }
      ],
      "stateMutability": "view",
      "type": "function",
      "constant": true
    },
    {
      "inputs": [],
      "name": "getNumLenders",
      "outputs": [
        {
          "internalType": "uint256",
          "name": "",
          "type": "uint256"
        }
      ],
      "stateMutability": "view",
      "type": "function",
      "constant": true
    },
    {
      "inputs": [],
      "name": "getContractBalance",
      "outputs": [
        {
          "internalType": "uint256",
          "name": "",
          "type": "uint256"
        }
      ],
      "stateMutability": "view",
      "type": "function",
      "constant": true
    },
    {
      "inputs": [],
      "name": "addLender",
      "outputs": [],
      "stateMutability": "payable",
      "type": "function",
      "payable": true
    }
  ],
  "bytecode": "0x60806040526040518060400160405280600581526020017f66616c73650000000000000000000000000000000000000000000000000000008152506000908051906020019061004f929190610062565b5034801561005c57600080fd5b50610107565b828054600181600116156101000203166002900490600052602060002090601f016020900481019282601f106100a357805160ff19168380011785556100d1565b828001600101855582156100d1579182015b828111156100d05782518255916020019190600101906100b5565b5b5090506100de91906100e2565b5090565b61010491905b808211156101005760008160009055506001016100e8565b5090565b90565b6102d7806101166000396000f3fe608060405260043610610072576000357c01000000000000000000000000000000000000000000000000000000009004806312719b62146100775780631fde8732146101075780636f9fb98a14610132578063b36862d81461015d578063c6c589b014610167578063c6f4e72714610192575b600080fd5b34801561008357600080fd5b5061008c6101bd565b6040518080602001828103825283818151815260200191508051906020019080838360005b838110156100cc5780820151818401526020810190506100b1565b50505050905090810190601f1680156100f95780820380516001836020036101000a031916815260200191505b509250505060405180910390f35b34801561011357600080fd5b5061011c61025b565b6040518082815260200191505060405180910390f35b34801561013e57600080fd5b50610147610261565b6040518082815260200191505060405180910390f35b610165610280565b005b34801561017357600080fd5b5061017c610292565b6040518082815260200191505060405180910390f35b34801561019e57600080fd5b506101a7610297565b6040518082815260200191505060405180910390f35b60008054600181600116156101000203166002900480601f0160208091040260200160405190810160405280929190818152602001828054600181600116156101000203166002900480156102535780601f1061022857610100808354040283529160200191610253565b820191906000526020600020905b81548152906001019060200180831161023657829003601f168201915b505050505081565b60015481565b60003073ffffffffffffffffffffffffffffffffffffffff1631905090565b60018060008282540192505081905550565b600281565b600060015490509056fea2646970667358221220b35f334c4b38c89b3ec89a9543034f821a9ecdf68b95051b2611929d3478a47f64736f6c63430006090033",
  "immutableReferences": {},
  "source": "pragma solidity > 0.6.0 < 0.7.0;\n\ncontract LoanContract {\n    uint constant public loan_value = 2;     //ETH\n    string public isgood = \"false\";\n    // uint public balance;\n    uint public num_lenders;\n    \n    function getNumLenders() public view returns (uint) {\n      return num_lenders;\n    }\n    function getContractBalance() public view returns (uint) {\n        return address(this).balance;\n    }\n     function addLender() payable public {\n    //   balance = address(this).balance;\n      num_lenders += 1;\n  }\n}\n",
  "sourcePath": "/Users/dan/me/myprojects/atlas-frontend/contracts/LoanContract.sol",
  "compiler": {
    "name": "solc",
    "version": "0.6.9+commit.3e3065ac.Emscripten.clang"
  },
  "schemaVersion": "3.2.0",
  "updatedAt": "2020-06-22T06:06:42.297Z",
  "networkType": "ethereum",
  "devdoc": {
    "methods": {}
  },
  "userdoc": {
    "methods": {}
  }
}