{
  "contractName": "LoanContract",
  "abi": [
    {
      "inputs": [],
      "name": "isgood",
      "outputs": [
        {
          "internalType": "string",
          "name": "",
          "type": "string"
        }
      ],
      "stateMutability": "view",
      "type": "function",
      "constant": true
    },
    {
      "inputs": [],
      "name": "loan_value",
      "outputs": [
        {
          "internalType": "uint256",
          "name": "",
          "type": "uint256"
        }
      ],
      "stateMutability": "view",
      "type": "function",
      "constant": true
    },
    {
      "inputs": [],
      "name": "num_lenders",
      "outputs": [
        {
          "internalType": "uint256",
          "name": "",
          "type": "uint256"
        }
      ],
      "stateMutability": "view",
      "type": "function",
      "constant": true
    },
    {
      "inputs": [],
      "name": "getNumLenders",
      "outputs": [
        {
          "internalType": "uint256",
          "name": "",
          "type": "uint256"
        }
      ],
      "stateMutability": "view",
      "type": "function",
      "constant": true
    },
    {
      "inputs": [],
      "name": "getContractBalance",
      "outputs": [
        {
          "internalType": "uint256",
          "name": "",
          "type": "uint256"
        }
      ],
      "stateMutability": "nonpayable",
      "type": "function"
    },
    {
      "inputs": [],
      "name": "addLender",
      "outputs": [],
      "stateMutability": "payable",
      "type": "function",
      "payable": true
    }
  ],
  "bytecode": "0x60806040526040518060400160405280600581526020017f66616c73650000000000000000000000000000000000000000000000000000008152506000908051906020019061004f929190610062565b5034801561005c57600080fd5b50610107565b828054600181600116156101000203166002900490600052602060002090601f016020900481019282601f106100a357805160ff19168380011785556100d1565b828001600101855582156100d1579182015b828111156100d05782518255916020019190600101906100b5565b5b5090506100de91906100e2565b5090565b61010491905b808211156101005760008160009055506001016100e8565b5090565b90565b6102a3806101166000396000f3fe6080604052600436106100555760003560e01c806312719b621461005a5780631fde8732146100ea5780636f9fb98a14610115578063b36862d814610140578063c6c589b01461014a578063c6f4e72714610175575b600080fd5b34801561006657600080fd5b5061006f6101a0565b6040518080602001828103825283818151815260200191508051906020019080838360005b838110156100af578082015181840152602081019050610094565b50505050905090810190601f1680156100dc5780820380516001836020036101000a031916815260200191505b509250505060405180910390f35b3480156100f657600080fd5b506100ff61023e565b6040518082815260200191505060405180910390f35b34801561012157600080fd5b5061012a610244565b6040518082815260200191505060405180910390f35b61014861024c565b005b34801561015657600080fd5b5061015f61025e565b6040518082815260200191505060405180910390f35b34801561018157600080fd5b5061018a610263565b6040518082815260200191505060405180910390f35b60008054600181600116156101000203166002900480601f0160208091040260200160405190810160405280929190818152602001828054600181600116156101000203166002900480156102365780601f1061020b57610100808354040283529160200191610236565b820191906000526020600020905b81548152906001019060200180831161021957829003601f168201915b505050505081565b60015481565b600047905090565b60018060008282540192505081905550565b600281565b600060015490509056fea26469706673582212201816913c7a8b32b96a15bb331cab37fa341f36c4a71989cec26460c58bf0260b64736f6c63430006090033",
  "immutableReferences": {},
  "source": "pragma solidity > 0.6.0 < 0.7.0;\n\ncontract LoanContract {\n    uint constant public loan_value = 2;     //ETH\n    string public isgood = \"false\";\n    // uint public balance;\n    uint public num_lenders;\n    \n    function getNumLenders() public view returns (uint) {\n      return num_lenders;\n    }\n    function getContractBalance() public returns (uint) {\n        return address(this).balance;\n    }\n     function addLender() payable public {\n    //   balance = address(this).balance;\n      num_lenders += 1;\n  }\n}\n",
  "sourcePath": "/Users/dan/me/myprojects/atlas-frontend/contracts/LoanContract.sol",
  "compiler": {
    "name": "solc",
    "version": "0.6.9+commit.3e3065ac.Emscripten.clang"
  },
  "schemaVersion": "3.2.0",
  "updatedAt": "2020-06-22T04:32:50.384Z",
  "networkType": "ethereum",
  "devdoc": {
    "methods": {}
  },
  "userdoc": {
    "methods": {}
  }
}